{
  "_format": "hh-sol-artifact-1",
  "contractName": "SecureVault",
  "sourceName": "contracts/secure_vault.sol",
  "abi": [
    {
      "inputs": [
        {
          "internalType": "address",
          "name": "initialOwner",
          "type": "address"
        }
      ],
      "stateMutability": "payable",
      "type": "constructor"
    },
    {
      "inputs": [
        {
          "internalType": "address",
          "name": "owner",
          "type": "address"
        }
      ],
      "name": "OwnableInvalidOwner",
      "type": "error"
    },
    {
      "inputs": [
        {
          "internalType": "address",
          "name": "account",
          "type": "address"
        }
      ],
      "name": "OwnableUnauthorizedAccount",
      "type": "error"
    },
    {
      "inputs": [],
      "name": "ReentrancyGuardReentrantCall",
      "type": "error"
    },
    {
      "anonymous": false,
      "inputs": [
        {
          "indexed": true,
          "internalType": "address",
          "name": "hunter",
          "type": "address"
        },
        {
          "indexed": false,
          "internalType": "uint256",
          "name": "amount",
          "type": "uint256"
        }
      ],
      "name": "Claimed",
      "type": "event"
    },
    {
      "anonymous": false,
      "inputs": [
        {
          "indexed": true,
          "internalType": "address",
          "name": "contributor",
          "type": "address"
        },
        {
          "indexed": false,
          "internalType": "uint256",
          "name": "amount",
          "type": "uint256"
        }
      ],
      "name": "Deposit",
      "type": "event"
    },
    {
      "anonymous": false,
      "inputs": [
        {
          "indexed": true,
          "internalType": "address",
          "name": "previousOwner",
          "type": "address"
        },
        {
          "indexed": true,
          "internalType": "address",
          "name": "newOwner",
          "type": "address"
        }
      ],
      "name": "OwnershipTransferred",
      "type": "event"
    },
    {
      "anonymous": false,
      "inputs": [
        {
          "indexed": true,
          "internalType": "address",
          "name": "contributor",
          "type": "address"
        },
        {
          "indexed": false,
          "internalType": "uint256",
          "name": "amount",
          "type": "uint256"
        }
      ],
      "name": "Refund",
      "type": "event"
    },
    {
      "stateMutability": "payable",
      "type": "fallback"
    },
    {
      "inputs": [
        {
          "internalType": "address",
          "name": "_hunter",
          "type": "address"
        }
      ],
      "name": "assign_hunter",
      "outputs": [],
      "stateMutability": "nonpayable",
      "type": "function"
    },
    {
      "inputs": [],
      "name": "checkBalance",
      "outputs": [
        {
          "internalType": "uint256",
          "name": "",
          "type": "uint256"
        }
      ],
      "stateMutability": "view",
      "type": "function"
    },
    {
      "inputs": [],
      "name": "checkContractBalance",
      "outputs": [
        {
          "internalType": "uint256",
          "name": "",
          "type": "uint256"
        }
      ],
      "stateMutability": "view",
      "type": "function"
    },
    {
      "inputs": [],
      "name": "checkDeadline",
      "outputs": [
        {
          "internalType": "uint256",
          "name": "",
          "type": "uint256"
        }
      ],
      "stateMutability": "view",
      "type": "function"
    },
    {
      "inputs": [],
      "name": "claim_bounty",
      "outputs": [],
      "stateMutability": "nonpayable",
      "type": "function"
    },
    {
      "inputs": [],
      "name": "deadline",
      "outputs": [
        {
          "internalType": "uint256",
          "name": "",
          "type": "uint256"
        }
      ],
      "stateMutability": "view",
      "type": "function"
    },
    {
      "inputs": [],
      "name": "deposit",
      "outputs": [],
      "stateMutability": "payable",
      "type": "function"
    },
    {
      "inputs": [],
      "name": "hunter",
      "outputs": [
        {
          "internalType": "address",
          "name": "",
          "type": "address"
        }
      ],
      "stateMutability": "view",
      "type": "function"
    },
    {
      "inputs": [],
      "name": "owner",
      "outputs": [
        {
          "internalType": "address",
          "name": "",
          "type": "address"
        }
      ],
      "stateMutability": "view",
      "type": "function"
    },
    {
      "inputs": [],
      "name": "refund",
      "outputs": [],
      "stateMutability": "nonpayable",
      "type": "function"
    },
    {
      "inputs": [],
      "name": "renounceOwnership",
      "outputs": [],
      "stateMutability": "nonpayable",
      "type": "function"
    },
    {
      "inputs": [
        {
          "internalType": "address",
          "name": "newOwner",
          "type": "address"
        }
      ],
      "name": "transferOwnership",
      "outputs": [],
      "stateMutability": "nonpayable",
      "type": "function"
    },
    {
      "stateMutability": "payable",
      "type": "receive"
    }
  ],
  "bytecode": "0x60806040526040516115fd3803806115fd833981810160405281019061002591906101f1565b80600073ffffffffffffffffffffffffffffffffffffffff168173ffffffffffffffffffffffffffffffffffffffff16036100985760006040517f1e4fbdf700000000000000000000000000000000000000000000000000000000815260040161008f919061022d565b60405180910390fd5b6100a7816100ca60201b60201c565b5060018081905550620d2f00426100be9190610281565b600481905550506102b5565b60008060009054906101000a900473ffffffffffffffffffffffffffffffffffffffff169050816000806101000a81548173ffffffffffffffffffffffffffffffffffffffff021916908373ffffffffffffffffffffffffffffffffffffffff1602179055508173ffffffffffffffffffffffffffffffffffffffff168173ffffffffffffffffffffffffffffffffffffffff167f8be0079c531659141344cd1fd0a4f28419497f9722a3daafe3b4186f6b6457e060405160405180910390a35050565b600080fd5b600073ffffffffffffffffffffffffffffffffffffffff82169050919050565b60006101be82610193565b9050919050565b6101ce816101b3565b81146101d957600080fd5b50565b6000815190506101eb816101c5565b92915050565b6000602082840312156102075761020661018e565b5b6000610215848285016101dc565b91505092915050565b610227816101b3565b82525050565b6000602082019050610242600083018461021e565b92915050565b6000819050919050565b7f4e487b7100000000000000000000000000000000000000000000000000000000600052601160045260246000fd5b600061028c82610248565b915061029783610248565b92508282019050808211156102af576102ae610252565b5b92915050565b611339806102c46000396000f3fe6080604052600436106100ab5760003560e01c8063715018a611610064578063715018a61461018857806380d582181461019f5780638da5cb5b146101c8578063c71daccb146101f3578063d0e30db01461021e578063f2fde38b14610228576100ac565b806302f58015146100ae5780631602f7b0146100c557806329dcb0cf146100f057806343bf99361461011b57806350312c9e14610146578063590e1ae314610171576100ac565b5b005b3480156100ba57600080fd5b506100c3610251565b005b3480156100d157600080fd5b506100da6104be565b6040516100e79190610cac565b60405180910390f35b3480156100fc57600080fd5b506101056104e4565b6040516101129190610ce0565b60405180910390f35b34801561012757600080fd5b506101306104ea565b60405161013d9190610ce0565b60405180910390f35b34801561015257600080fd5b5061015b6104f4565b6040516101689190610ce0565b60405180910390f35b34801561017d57600080fd5b506101866104fc565b005b34801561019457600080fd5b5061019d61078c565b005b3480156101ab57600080fd5b506101c660048036038101906101c19190610d2c565b6107a0565b005b3480156101d457600080fd5b506101dd61085b565b6040516101ea9190610cac565b60405180910390f35b3480156101ff57600080fd5b50610208610884565b6040516102159190610ce0565b60405180910390f35b6102266108cb565b005b34801561023457600080fd5b5061024f600480360381019061024a9190610d2c565b610a43565b005b610259610ac9565b600260009054906101000a900473ffffffffffffffffffffffffffffffffffffffff1673ffffffffffffffffffffffffffffffffffffffff163373ffffffffffffffffffffffffffffffffffffffff16146102e9576040517f08c379a00000000000000000000000000000000000000000000000000000000081526004016102e090610ddc565b60405180910390fd5b600454421061032d576040517f08c379a000000000000000000000000000000000000000000000000000000000815260040161032490610e48565b60405180910390fd5b60004790506000600260009054906101000a900473ffffffffffffffffffffffffffffffffffffffff1673ffffffffffffffffffffffffffffffffffffffff168260405161037a90610e99565b60006040518083038185875af1925050503d80600081146103b7576040519150601f19603f3d011682016040523d82523d6000602084013e6103bc565b606091505b5050905080610400576040517f08c379a00000000000000000000000000000000000000000000000000000000081526004016103f790610efa565b60405180910390fd5b600260009054906101000a900473ffffffffffffffffffffffffffffffffffffffff1673ffffffffffffffffffffffffffffffffffffffff167fd8138f8a3f377c5259ca548e70e4c2de94f129f5a11036a15b69513cba2b426a836040516104689190610ce0565b60405180910390a26000600260006101000a81548173ffffffffffffffffffffffffffffffffffffffff021916908373ffffffffffffffffffffffffffffffffffffffff16021790555050506104bc610b0f565b565b600260009054906101000a900473ffffffffffffffffffffffffffffffffffffffff1681565b60045481565b6000600454905090565b600047905090565b6000600360003373ffffffffffffffffffffffffffffffffffffffff1673ffffffffffffffffffffffffffffffffffffffff168152602001908152602001600020541161057e576040517f08c379a000000000000000000000000000000000000000000000000000000000815260040161057590610f66565b60405180910390fd5b60045442116105c2576040517f08c379a00000000000000000000000000000000000000000000000000000000081526004016105b990610fd2565b60405180910390fd5b6000600360003373ffffffffffffffffffffffffffffffffffffffff1673ffffffffffffffffffffffffffffffffffffffff16815260200190815260200160002054905060008111610649576040517f08c379a00000000000000000000000000000000000000000000000000000000081526004016106409061103e565b60405180910390fd5b6000600360003373ffffffffffffffffffffffffffffffffffffffff1673ffffffffffffffffffffffffffffffffffffffff1681526020019081526020016000208190555060003373ffffffffffffffffffffffffffffffffffffffff16826040516106b490610e99565b60006040518083038185875af1925050503d80600081146106f1576040519150601f19603f3d011682016040523d82523d6000602084013e6106f6565b606091505b505090508061073a576040517f08c379a0000000000000000000000000000000000000000000000000000000008152600401610731906110aa565b60405180910390fd5b3373ffffffffffffffffffffffffffffffffffffffff167fbb28353e4598c3b9199101a66e0989549b659a59a54d2c27fbb183f1932c8e6d836040516107809190610ce0565b60405180910390a25050565b610794610b18565b61079e6000610b9f565b565b6107a8610b18565b600073ffffffffffffffffffffffffffffffffffffffff168173ffffffffffffffffffffffffffffffffffffffff1603610817576040517f08c379a000000000000000000000000000000000000000000000000000000000815260040161080e90611116565b60405180910390fd5b80600260006101000a81548173ffffffffffffffffffffffffffffffffffffffff021916908373ffffffffffffffffffffffffffffffffffffffff16021790555050565b60008060009054906101000a900473ffffffffffffffffffffffffffffffffffffffff16905090565b6000600360003373ffffffffffffffffffffffffffffffffffffffff1673ffffffffffffffffffffffffffffffffffffffff16815260200190815260200160002054905090565b6000341161090e576040517f08c379a000000000000000000000000000000000000000000000000000000000815260040161090590611182565b60405180910390fd5b671bc16d674ec80000341115610959576040517f08c379a0000000000000000000000000000000000000000000000000000000008152600401610950906111ee565b60405180910390fd5b600454421061099d576040517f08c379a000000000000000000000000000000000000000000000000000000000815260040161099490611280565b60405180910390fd5b34600360003373ffffffffffffffffffffffffffffffffffffffff1673ffffffffffffffffffffffffffffffffffffffff16815260200190815260200160002060008282546109ec91906112cf565b925050819055503373ffffffffffffffffffffffffffffffffffffffff167fe1fffcc4923d04b559f4d29a8bfc6cda04eb5b0d3c460751c2402c5c5cc9109c34604051610a399190610ce0565b60405180910390a2565b610a4b610b18565b600073ffffffffffffffffffffffffffffffffffffffff168173ffffffffffffffffffffffffffffffffffffffff1603610abd5760006040517f1e4fbdf7000000000000000000000000000000000000000000000000000000008152600401610ab49190610cac565b60405180910390fd5b610ac681610b9f565b50565b600260015403610b05576040517f3ee5aeb500000000000000000000000000000000000000000000000000000000815260040160405180910390fd5b6002600181905550565b60018081905550565b610b20610c63565b73ffffffffffffffffffffffffffffffffffffffff16610b3e61085b565b73ffffffffffffffffffffffffffffffffffffffff1614610b9d57610b61610c63565b6040517f118cdaa7000000000000000000000000000000000000000000000000000000008152600401610b949190610cac565b60405180910390fd5b565b60008060009054906101000a900473ffffffffffffffffffffffffffffffffffffffff169050816000806101000a81548173ffffffffffffffffffffffffffffffffffffffff021916908373ffffffffffffffffffffffffffffffffffffffff1602179055508173ffffffffffffffffffffffffffffffffffffffff168173ffffffffffffffffffffffffffffffffffffffff167f8be0079c531659141344cd1fd0a4f28419497f9722a3daafe3b4186f6b6457e060405160405180910390a35050565b600033905090565b600073ffffffffffffffffffffffffffffffffffffffff82169050919050565b6000610c9682610c6b565b9050919050565b610ca681610c8b565b82525050565b6000602082019050610cc16000830184610c9d565b92915050565b6000819050919050565b610cda81610cc7565b82525050565b6000602082019050610cf56000830184610cd1565b92915050565b600080fd5b610d0981610c8b565b8114610d1457600080fd5b50565b600081359050610d2681610d00565b92915050565b600060208284031215610d4257610d41610cfb565b5b6000610d5084828501610d17565b91505092915050565b600082825260208201905092915050565b7f4f6e6c79207468652068756e7465722063616e20636c61696d2074686520626f60008201527f756e747900000000000000000000000000000000000000000000000000000000602082015250565b6000610dc6602483610d59565b9150610dd182610d6a565b604082019050919050565b60006020820190508181036000830152610df581610db9565b9050919050565b7f446561646c696e65206861732065787069726564000000000000000000000000600082015250565b6000610e32601483610d59565b9150610e3d82610dfc565b602082019050919050565b60006020820190508181036000830152610e6181610e25565b9050919050565b600081905092915050565b50565b6000610e83600083610e68565b9150610e8e82610e73565b600082019050919050565b6000610ea482610e76565b9150819050919050565b7f426f756e747920636c61696d6564206661696c65640000000000000000000000600082015250565b6000610ee4601583610d59565b9150610eef82610eae565b602082019050919050565b60006020820190508181036000830152610f1381610ed7565b9050919050565b7f4e6f206d6f6e657920746f20726566756e640000000000000000000000000000600082015250565b6000610f50601283610d59565b9150610f5b82610f1a565b602082019050919050565b60006020820190508181036000830152610f7f81610f43565b9050919050565b7f446561646c696e6520686173206e6f7420657870697265640000000000000000600082015250565b6000610fbc601883610d59565b9150610fc782610f86565b602082019050919050565b60006020820190508181036000830152610feb81610faf565b9050919050565b7f4e6f7468696e6720746f20726566756e64000000000000000000000000000000600082015250565b6000611028601183610d59565b915061103382610ff2565b602082019050919050565b600060208201905081810360008301526110578161101b565b9050919050565b7f526566756e64206661696c656400000000000000000000000000000000000000600082015250565b6000611094600d83610d59565b915061109f8261105e565b602082019050919050565b600060208201905081810360008301526110c381611087565b9050919050565b7f496e76616c69642068756e746572206164647265737300000000000000000000600082015250565b6000611100601683610d59565b915061110b826110ca565b602082019050919050565b6000602082019050818103600083015261112f816110f3565b9050919050565b7f4d75737420636f6e7461696e2065746865727300000000000000000000000000600082015250565b600061116c601383610d59565b915061117782611136565b602082019050919050565b6000602082019050818103600083015261119b8161115f565b9050919050565b7f4465706f7369742076616c756520746f6f206869676800000000000000000000600082015250565b60006111d8601683610d59565b91506111e3826111a2565b602082019050919050565b60006020820190508181036000830152611207816111cb565b9050919050565b7f4465706f736974206e6f7420616c6c6f7765642061667465722074686520646560008201527f61646c696e650000000000000000000000000000000000000000000000000000602082015250565b600061126a602683610d59565b91506112758261120e565b604082019050919050565b600060208201905081810360008301526112998161125d565b9050919050565b7f4e487b7100000000000000000000000000000000000000000000000000000000600052601160045260246000fd5b60006112da82610cc7565b91506112e583610cc7565b92508282019050808211156112fd576112fc6112a0565b5b9291505056fea2646970667358221220b424f3285277a24fec6c8a9e809753fac4cda0d43a3425880ba4c4b26fed698a64736f6c634300081c0033",
  "linkReferences": {},
  "deployedLinkReferences": {}
}